:100000000C9460000C9488000C9488000C94880078
:100010000C9488000C9488000C9488000C9468164A
:100020000C9488000C9488000C9488000C94880030
:100030000C9488000C9488000C9488000C94880020
:100040000C94570E0C9488000C9499120C94D512B1
:100050000C9488000C9488000C9488000C94880000
:100060000C94660C0C94880000000007000201004C
:100070000003040600000000000000000102040864
:100080001020408001020408102001020408102002
:10009000040404040404040402020202020203032E
:1000A0000303030300000000250028002B000000CC
:1000B0000000240027002A00020054090D0C9013B0
:1000C00011241FBECFEFD8E0DEBFCDBF12E0A0E00D
:1000D000B1E0E8E3FAE302C005900D92AA3BB10754
:1000E000D9F714E0AAEBB2E001C01D92AE39B10716
:1000F000E1F710E0C0ECD0E004C02297FE010E94BE
:100100008B1ACA3BD107C9F70E9427140C941A1DF9
:100110000C9400008091C6029091C702029724F0CF
:100120001092C7021092C602E0911203F0911303DD
:100130000190F081E02D6091C40282E193E0099486
:1001400064E070E082E193E00E94010C6DE775E0ED
:1001500082E193E00E94030C6AE870E082E193E0A0
:100160000E94080C40E855E260E070E08EED93E0FC
:100170000E94101360E080911E010E94720F61E0E6
:1001800080912E010E94720F61E080912C010E94EB
:10019000720F61E080912A010E94720F61E08091EC
:1001A00028010E94720F61E0809126010E94720F67
:1001B00061E0809124010E94720F61E08091200132
:1001C0000E94720F20E042E060E188EF92E00C9420
:1001D0008D0A0F931F930E94A10E6093EE027093FD
:1001E000EF028093F0029093F1028091E4029091EB
:1001F000E502019709F040C061E080912C010E9466
:10020000AA0F8091C2029091C302019731F466E671
:1002100071E08EED93E00E9482108091EE02909149
:10022000EF02A091F002B091F1024091F2025091E0
:10023000F3026091F4027091F5028C019D01041BA0
:10024000150B260B370B40913C0150913D016091FD
:100250003E0170913F01401751076207730760F438
:100260008093F2029093F302A093F402B093F5020C
:100270001092E5021092E4028091E4029091E5026E
:10028000892BA9F460E080912C010E94AA0F809133
:10029000EE029091EF02A091F002B091F1028093F2
:1002A000F2029093F302A093F402B093F5021F912F
:1002B0000F910895CF92DF92EF92FF920E94A10ECC
:1002C0006093E6027093E7028093E8029093E9025C
:1002D0008091E2029091E302019709F043C061E04E
:1002E00080912E010E94AA0F8091C2029091C302B8
:1002F000019731F46DE671E08EED93E00E9482107B
:10030000C090E602D090E702E090E802F090E902A7
:100310008091EA029091EB02A091EC02B091ED0283
:10032000A7019601281B390B4A0B5B0BCA01B901C7
:100330000E940B19209138013091390140913A0106
:1003400050913B010E94BD19181664F4C092EA0254
:10035000D092EB02E092EC02F092ED021092E302F6
:100360001092E2028091E2029091E302892BA9F4BB
:1003700060E080912E010E94AA0F8091E602909188
:10038000E702A091E802B091E9028093EA0290931B
:10039000EB02A093EC02B093ED02FF90EF90DF90A0
:1003A000CF9008954F925F926F927F92AF92BF92DB
:1003B000CF92DF92EF92FF920F931F9396C07090AF
:1003C0000A0382E193E00E94220BE72DF0E0E55F53
:1003D000FC4F8083872D8F5F80930A03873008F45A
:1003E00084C010920A034090DE025090DF0266241F
:1003F00057FC6094762C80910B03682F70E080E0AE
:1004000090E020914201309143018901222717FD9C
:100410002095322F3F932F931F930F93A12CB12C34
:100420006501E12CF12C8701EA9420E030E0A9017C
:100430000E94E013461A570A680A790A440C551CB0
:100440005092DB024092DA0280910C0390E02091FE
:10045000DC023091DD02821B930B880F991F0F90F5
:100460000F900F900F908F3F910519F014F08FEFC0
:1004700090E081302FEF920714F481E09FEF90938A
:10048000D9028093D80220910D032093D6021092B6
:10049000D70220910E032093120110921301209194
:1004A0000F0320931001109211012091100320934B
:1004B0000E0110920F012091110320930C01109254
:1004C0000D018C599F4F893C910520F41092D9025F
:1004D0001092D80284E1480E511C29E242165104C0
:1004E00020F41092DB021092DA0282E193E00E9483
:1004F000190B892B09F063CF1F910F91FF90EF909B
:10050000DF90CF90BF90AF907F906F905F904F90B3
:10051000089560E080912A010E94AA0F60E0809116
:1005200028010E94AA0F60E0809126010E94AA0F74
:1005300060E0809124010E94AA0F60E08091200178
:100540000C94AA0F6091DA027091DB028091C802CC
:100550009091C9029195819591096817790704F5E1
:1005600020910A0130910B01809136019091370161
:1005700028173907ACF477FF03C0719561957109AD
:1005800080912A010E94F60D8091C2029091C302CF
:10059000019731F461E971E08EED93E00E948210E1
:1005A0006091DA027091DB0220910A0130910B0117
:1005B000809134019091350182179307E4F4809182
:1005C000C8029091C90286179707ACF477FF03C061
:1005D000719561957109809128010E94F60D8091B5
:1005E000C2029091C302019731F466E971E08EED89
:1005F00093E00E9482106091D8027091D90280919C
:1006000006019091070191958195910968177907E5
:1006100004F52091080130910901809130019091F9
:10062000310182179307ACF477FF03C07195619590
:100630007109809124010E94F60D8091C20290916F
:10064000C302019731F46CE971E08EED93E00E94F2
:1006500082106091D8027091D902209108013091E6
:100660000901809132019091330128173907E4F490
:10067000809106019091070186179707ACF477FFE8
:1006800003C0719561957109809126010E94F60D54
:100690008091C2029091C302019731F461EA71E046
:1006A0008EED93E00C94821008954F925F926F92BA
:1006B0007F928F929F92AF92BF92CF92DF92EF92F2
:1006C000FF920F931F93CF93DF93CDB7DEB72E9793
:1006D0000FB6F894DEBF0FBECDBF40900A01509018
:1006E0000B01B201882777FD8095982F2091420158
:1006F000309143018901222717FD2095322F3F9326
:100700002F931F930F93A12CB12C650112E5E12EBD
:1007100013E0F12E00E010E026E930E040E050E088
:100720000E94E0132B013C01809042019090430114
:1007300080910A0190910B01BC01882777FD80957B
:10074000982F8401222717FD2095322F3F932F9356
:100750001F930F9312E5E12E13E0F12E00E010E05D
:1007600026E930E040E050E00E94E0136B017C019C
:100770000FB6F894DEBF0FBECDBF20910A013091B5
:100780000B0180913601909137018217930784F510
:1007900003E210E008191909040D151DB801809134
:1007A00028010E94F60D8091BC029091BD02019734
:1007B000F9F464EA71E0CE0108960E943517BE0193
:1007C000685F7F4FCE0101960E946917B801CE0184
:1007D00001960E94E717BC018EED93E00E946E1017
:1007E000CE0101960E94C416CE0108960E94C4163E
:1007F00020910A0130910B018091340190913501D3
:100800002817390774F503E210E00C191D09B80127
:1008100080912A010E94F60D8091BC029091BD0248
:100820000197F9F469EB71E0CE0108960E94351743
:10083000BE01685F7F4FCE0101960E946917B80123
:10084000CE0101960E94E717BC018EED93E00E9455
:100850006E10CE0101960E94C416CE0108960E9429
:10086000C4162E960FB6F894DEBF0FBECDBFDF9133
:10087000CF911F910F91FF90EF90DF90CF90BF909D
:10088000AF909F908F907F906F905F904F90089562
:100890008091D6029091D702803591054CF461E0A9
:1008A000809120010E94AA0F1092E1021092E002B2
:1008B00008958091120190911301892B51F481E0E8
:1008C00090E09093E3028093E2029093E1028093A0
:1008D000E002089580910C0190910D01892B31F473
:1008E00081E090E09093E5028093E4020895EF9216
:1008F000FF920F931F93CF93DF93CDB7DEB765972A
:100900000FB6F894DEBF0FBECDBF8091C0029091AC
:10091000C1020197C9F56FEC71E0CE010F960E94FC
:10092000351764EE71E0CE0108960E9435170091EC
:10093000D8021091D902E090DA02F090DB02BE01F9
:10094000615F7F4FCE0101960E946917B701CE010A
:1009500001960E94E717BE01685F7F4F0E94D11782
:10096000B8010E94E717BC018EED93E00E946E1063
:10097000CE0101960E94C416CE0108960E94C416AC
:10098000CE010F960E94C4168091BE029091BF02C4
:10099000019721F563E372E08EED93E00E944F1022
:1009A00060910A0170910B014AE050E08EED93E0F6
:1009B0000E944A116DE372E08EED93E00E944F10A9
:1009C00060910801709109014AE050E08EED93E0DA
:1009D0000E944A118EED93E00E9458108091BA0255
:1009E0009091BB02019709F068C06091DA027091A2
:1009F000DB024AE050E08EED93E00E944A116CE287
:100A00008EED93E00E9451106091D8027091D9024E
:100A10004AE050E08EED93E00E944A116CE28EEDC8
:100A200093E00E9451106091D6027091D7024AE083
:100A300050E08EED93E00E944A116CE28EED93E05F
:100A40000E94511060911201709113014AE050E030
:100A50008EED93E00E944A116CE28EED93E00E94CD
:100A6000511060911001709111014AE050E08EED3B
:100A700093E00E944A116CE28EED93E00E945110C7
:100A800060910E0170910F014AE050E08EED93E00D
:100A90000E944A116CE28EED93E00E945110609129
:100AA0000C0170910D014AE050E08EED93E00E9440
:100AB0004A118EED93E00E94581065960FB6F89497
:100AC000DEBF0FBECDBFDF91CF911F910F91FF9081
:100AD000EF9008958091E0029091E102019749F42E
:100AE00020E030E0A90160E971E0809122010C94DE
:100AF0003414809122010C9453160E94D2010E945A
:100B000089020E9455030E94A2020E9448040E948A
:100B100059040E946A040E946A050E94E9000E942A
:100B20005A0181E090E090930903809308030895AF
:100B3000CF92DF92EF92FF9280910E0190910F0180
:100B40009093D3028093D2022091D0023091D102AF
:100B500082179307C1F08130910559F42091D40296
:100B60003091D5022F5F3F4F3093D5022093D402AE
:100B70000AC02091F6023091F7022F5F3F4F309369
:100B8000F7022093F6029093D1028093D002209135
:100B9000F6023091F70280911401909115018217AD
:100BA000930724F41092F7021092F6028091F60255
:100BB0009091F702892BE1F488EF92E00E94860A77
:100BC00040E060E088EF92E00E94590A68EF71E02F
:100BD00088EF92E00E944F1041E060E088EF92E0E1
:100BE0000E94590A65E072E088EF92E00E944F107F
:100BF0008091F6029091F702019709F093C088EF77
:100C000092E00E94860A40E060E088EF92E00E9455
:100C1000590A65E172E088EF92E00E944F1041E0CE
:100C200060E088EF92E00E94590A20E030E04AE755
:100C300054E4609138017091390180913A019091AA
:100C40003B010E947218AB01BC0122E030E088EF4A
:100C500092E00E94FB1160E272E088EF92E00E9455
:100C60004F108091F6029091F702019709F05AC057
:100C700080911001909111019093CD028093CC024C
:100C80002091CA023091CB028217930709F442C027
:100C9000019751F48091CE029091CF0201969093EA
:100CA000CF028093CE0236C069E272E08EED93E00F
:100CB0000E94821020E030E04AEF53E46091380156
:100CC0007091390180913A0190913B010E940A187C
:100CD000FB01462F5F2F682F792F409338015093E7
:100CE000390160933A0170933B0120E030E84BEB0F
:100CF00055E4BF010E94BD19181664F480E090E02D
:100D0000AAEFB4E48093380190933901A0933A019B
:100D1000B0933B018091CC029091CD029093CB0295
:100D20008093CA028091F6029091F702029781F5B2
:100D300088EF92E00E94860A40E060E088EF92E04F
:100D40000E94590A6DE272E088EF92E00E944F1013
:100D50006091DA027091DB024AE050E088EF92E0A5
:100D60000E944A1141E060E088EF92E00E94590A37
:100D700068E372E088EF92E00E944F106091D80221
:100D80007091D9024AE050E088EF92E00E944A1147
:100D90008091F6029091F702039709F050C088EF16
:100DA00092E00E94860A40E060E088EF92E00E94B4
:100DB000590A63E472E088EF92E00E944F1060915C
:100DC0001201709113014AE050E088EF92E00E9416
:100DD0004A1168E472E088EF92E00E944F1060913F
:100DE0001001709111014AE050E088EF92E00E94FA
:100DF0004A1141E060E088EF92E00E94590A6EE3F8
:100E000072E088EF92E00E944F1060910E017091A5
:100E10000F014AE050E088EF92E00E944A1162E33D
:100E200072E088EF92E00E944F1060910C01709187
:100E30000D014AE050E088EF92E00E944A11809153
:100E4000F6029091F702049781F588EF92E00E94F4
:100E5000860A40E060E088EF92E00E94590A6EE462
:100E600072E088EF92E00E944F1060910A01709149
:100E70000B014AE050E088EF92E00E944A1141E005
:100E800060E088EF92E00E94590A65E572E088EF21
:100E900092E00E944F1060910801709109014AE0B0
:100EA00050E088EF92E00E944A118091F602909102
:100EB000F702059741F588EF92E00E94860A40E02C
:100EC00060E088EF92E00E94590A6DE572E088EFD9
:100ED00092E00E944F1041E060E088EF92E00E94B3
:100EE000590A0E94A10E28EE33E040E050E00E9433
:100EF0003F1A69017A012AE030E0B701A60188EFC4
:100F000092E00E94F2108091F6029091F70206970B
:100F100009F06FC088EF92E00E94860A40E060E02E
:100F200088EF92E00E94590A64E672E088EF92E04E
:100F30000E944F1041E060E088EF92E00E94590A61
:100F400060914201709143014AE050E088EF92E0E5
:100F50000E944A118091F6029091F702069709F0DB
:100F600048C080911001909111019093CD0280931F
:100F7000CC022091CA023091CB028217930789F1EB
:100F8000019751F48091CE029091CF0201969093F7
:100F9000CF028093CE0225C069E272E08EED93E02D
:100FA0000E9482104091420150914301CA0105966E
:100FB00090934301809342019C0197FF03C09A01E3
:100FC0002A5F3F4F359527953093DF022093DE024D
:100FD0008C34910534F082E390E090934301809348
:100FE00042018091CC029091CD029093CB028093EC
:100FF000CA02FF90EF90DF90CF900895AF92BF921A
:10100000CF92DF92EF92FF920F931F93CF936AE0FC
:1010100070E080E090E00E94DD0E0E9477048091F5
:101020001E010E94D50D90930B0180930A018091BF
:101030001C010E94D50D9093090180930801E09056
:101040003601F09037010027F7FC0095102F209112
:10105000340130913501442737FD4095542F60917C
:101060000A0170910B01882777FD8095982F1F92B8
:101070001F921F92CFE7CF93A12CB12C65010E9444
:10108000E0130F900F900F900F9097FD4AC0E090E3
:101090003601F09037010027F7FC0095102F2091C2
:1010A000340130913501442737FD4095542F60912C
:1010B0000A0170910B01882777FD8095982F1F9268
:1010C0001F921F92CF930E94E0130F900F900F90EA
:1010D0000F9060387105810591052CF5E09036017F
:1010E000F09037010027F7FC0095102F2091340174
:1010F00030913501442737FD4095542F60910A0106
:1011000070910B01882777FD8095982F1F921F9271
:101110001F92CF930E94E0130F900F900F900F90AB
:1011200003C060E001C06FE760930703E090320105
:10113000F09033010027F7FC0095102F209130012B
:1011400030913101442737FD4095542F60910801BB
:1011500070910901882777FD8095982F1F921F9223
:101160001F92CFE7CF93A12CB12C65010E94E01311
:101170000F900F900F900F9097FD4AC0E0903201B2
:10118000F09033010027F7FC0095102F20913001DB
:1011900030913101442737FD4095542F609108016B
:1011A00070910901882777FD8095982F1F921F92D3
:1011B0001F92CF930E94E0130F900F900F900F900B
:1011C00060387105810591052CF5E0903201F090B1
:1011D00033010027F7FC0095102F2091300130914A
:1011E0003101442737FD4095542F609108017091DB
:1011F0000901882777FD8095982F1F921F921F92D3
:10120000CF930E94E0130F900F900F900F9003C0A8
:1012100060E001C06FE7609306038091070380934D
:10122000C4021092C5026093C6021092C702809158
:10123000080390910903892BE1F488EF92E00E9462
:10124000860A40E060E088EF92E00E94590A64E775
:1012500072E088EF92E00E944F1041E060E088EF7A
:1012600092E00E94590A63E872E088EF92E00E94DF
:101270004F108091080390910903019759F4CF9181
:101280001F910F91FF90EF90DF90CF90BF90AF90A4
:101290000C949805CF911F910F91FF90EF90DF90E4
:1012A000CF90BF90AF90089520911A0140911801FE
:1012B0006091160188EF92E00E940E0B6091380158
:1012C0007091390180913A0190913B010E94DF18A1
:1012D0006093E6027093E7028093E8029093E9023C
:1012E0006091420170914301CB0177FD0196959584
:1012F00087959093DF028093DE0280914001909168
:10130000410197FD0196959587959093DD02809315
:10131000DC02882777FD8095982F0E940D1922E521
:1013200038EB4EE95EE30E94C1190E94DA1870930F
:10133000C9026093C8020895CF93DF93EC0160E087
:101340008D810E94AA0F2F8141E06E818C810E94C5
:10135000960D61E08D81DF91CF910C94AA0FCF9310
:10136000DF93EC018F818E7F8F83CE010E949C09D9
:1013700081E090E00E94030F8F8181608F83CE0116
:101380000E949C0981E090E00E94030F8F818E7F74
:101390008F83CE010E949C0984E690E0DF91CF917B
:1013A0000C94030FFC018781613011F4806101C04E
:1013B0008F7E87830895FC018781613011F48860F6
:1013C00001C0877F87830895FC018781613011F414
:1013D000846001C08B7F87830895FC018781613021
:1013E00011F4826001C08D7F878308950F931F934E
:1013F000CF93DF93EC01062F0F7010E061700E9415
:10140000D20915950795B80161707727CE010E9422
:10141000DB0915950795B80161707727CE010E9409
:10142000E409B80175956795CE010E94ED09CE01DA
:10143000DF91CF911F910F910C94AF09FC0187812F
:10144000613011F4806801C08F77878308951F93FE
:10145000CF93DF93EC01162F642F0E941E0ACE015A
:101460000E949C09888584FD11C0612F70E034E0E2
:10147000759567953A95E1F7CE010E94F609612FBF
:10148000CE01DF91CF911F910C94F609DF91CF919E
:101490001F91089541E00E94270A089540E00C94AE
:1014A000270AFC016185262F246021876C600C943B
:1014B0004E0ACF93DF93CDB7DEB728970FB6F894D7
:1014C000DEBF0FBECDBF28E0E6E4F1E0DE011196FD
:1014D00001900D922A95E1F7FC012485241710F460
:1014E000422F4150FE013196E40FF11DE40FF11D32
:1014F0002081260F2068622F28960FB6F894DEBF51
:101500000FBECDBFDF91CF910C944E0A61E00E94D7
:101510004E0A80ED97E00C94030FCF93DF93EC011C
:10152000423018F08885886088874C871D86222382
:1015300029F0413019F488858460888780E593EC30
:101540000E94030F8F818E778F83CE010E949C09AA
:10155000688564FD1DC063E0CE010E94F60984E940
:1015600091E10E94030F63E0CE010E94F60984E935
:1015700091E10E94030F63E0CE010E94F60986E923
:1015800090E00E94030F62E0CE010E94F60916C0AF
:101590006062CE010E944E0A84E991E10E94030F2D
:1015A00068856062CE010E944E0A86E990E00E9442
:1015B000030F68856062CE010E944E0A68856062F2
:1015C000CE010E944E0A84E08987CE010E94510A12
:1015D000CE010E94860A82E08A8766E0CE01DF9112
:1015E000CF910C944E0ACF93DF93EC01862F6C833E
:1015F0004D832E8361E00E94720F61E08D810E9415
:10160000720F61E08E810E94720F188620E041E027
:1016100060E1CE01DF91CF910C948D0ADC0113962D
:101620001C921E921297E4E9F2E0ED93FC930C9465
:10163000F30A2091450330E080914603281B3109CD
:10164000C90108958091460390914503891750F48C
:10165000E82FF0E0E95BFC4F208130E08F5F809362
:10166000460302C02FEF3FEFC9010895E091460302
:1016700080914503E81730F4F0E0E95BFC4F2081EE
:1016800030E002C02FEF3FEFC90108950895E091C7
:101690001E03F0911F033097E1F030914603209133
:1016A00045033217B0F040E009C0DC01A20FB31FC0
:1016B0005C91D901A95BBC4F5C934F5F242F30E054
:1016C0002617370794F31092460360934503CB0126
:1016D00009940895E0912003F0912103309729F0B7
:1016E000109224031092230309940895CF92DF925D
:1016F000EF92FF920F931F93CF93DF937C01CB0167
:101700008A0120912203222391F0EB016B01C40E88
:10171000D51E09C06991D701ED91FC910190F0812E
:10172000E02DC7010995CC15DD05A1F703C0642F95
:101730000E94330CC801DF91CF911F910F91FF9050
:10174000EF90DF90CF900895CF93DF931F92CDB7A6
:10175000DEB76983209122032223D1F02091230355
:10176000203240F021E030E0FC013383228320E08E
:1017700030E015C080912403E82FF0E0EB5DFC4FD2
:10178000998190838F5F809324038093230305C006
:1017900061E0CE0101960E94330C21E030E0C901E6
:1017A0000F90DF91CF910895FC011382128248EED1
:1017B00053E060E070E044835583668377838CE96F
:1017C00092E091838083089510924603109245031E
:1017D00010922403109223030C94110CCF93DF93E7
:1017E000EC01862F0E942F0C8AE69BE00E94510C90
:1017F00087E49BE00E944C0CCE01DF91CF910C94CA
:10180000E40B0C94EE0B70931F0360931E0308957A
:101810007093210360932003089582E193E00C9478
:10182000D40B1092700381E080936E0310926D03CD
:1018300061E082E10E94AA0F61E083E10E94AA0FA9
:10184000E9EBF0E080818E7F808380818D7F8083D3
:1018500088E48093B80085E48093BC000895880FE5
:101860008093BA000895613298F420917003243077
:1018700089F460936903FC0181E993E0DC0102C013
:1018800021912D932A2F281B2617D0F380E008954D
:1018900081E0089582E008959093B2038093B103AC
:1018A00008959093B4038093B303089585ED8093D6
:1018B000BC008091BC0084FDFCCF109270030895A1
:1018C00085EC8093BC001092700308951F920F92D4
:1018D0000FB60F9211242F933F934F935F936F9303
:1018E0007F938F939F93AF93BF93EF93FF938091D9
:1018F000B900887F803609F49FC058F5883209F412
:101900005BC090F4803109F452C038F4882309F4A4
:10191000F8C0883009F0F9C04AC0883109F44CC0D9
:10192000803209F0F2C05CC0803409F46BC038F436
:10193000803309F455C0883309F0E7C054C08035BE
:1019400009F454C0883509F462C0883409F0DDC058
:10195000DAC0883909F4CBC0A8F4883709F46CC020
:1019600038F4883609F468C0803709F0CEC064C006
:10197000883809F4BCC0803909F464C0803809F0A3
:10198000C4C060C0803B09F48AC038F4803A09F4CE
:101990006BC0883A09F0B9C082C0803C09F4ABC082
:1019A000883C09F4A8C0883B09F0AFC08DC0809185
:1019B0006F038093BB0012C090916C0380916B0306
:1019C000981788F580916C03E82FF0E0EF58FC4FF2
:1019D00090819093BB008F5F80936C0385EC88C0EF
:1019E0008093670390C08093670356C080916C0317
:1019F0009091BB00E82FF0E0EF58FC4F90838F5F91
:101A000080936C0390916C0380916B036DC0809107
:101A10006C039091BB00E82FF0E0EF58FC4F9083EF
:101A20008F5F80936C0380916E0381116CC081E0A5
:101A300080936D0384EA60C083E08093700310920A
:101A40006803CCCF80916803803208F050C0809149
:101A500068039091BB00E82FF0E0EB54FC4F9083BB
:101A60008F5F80936803BACF80916803803230F42F
:101A7000E0916803F0E0EB54FC4F10820E94560C9A
:101A800060916803E091B103F091B20370E085EBDF
:101A900093E00995109268030E94600C36C084E0C0
:101AA0008093700310926A0310926903E091B3036C
:101AB000F091B403099580916903811105C081E01B
:101AC000809369031092910380916A03E82FF0E0FC
:101AD000EF56FC4F90819093BB008F5F80936A0319
:101AE00090916A0380916903981708F477CF85E88D
:101AF0008093BC000AC085EC8093BC0010927003F8
:101B000004C0109267030E94560CFF91EF91BF91A1
:101B1000AF919F918F917F916F915F914F913F9185
:101B20002F910F900FBE0F901F901895BF92CF92DC
:101B3000DF92EF92FF920F931F93CF93DF93C82E04
:101B4000D62EB42EC7E0D0E0022F10E087E0E82EBA
:101B5000F12CB1100AC0F701EC1BFD0BB80102C05B
:101B600075956795EA95E2F707C0B8010C2E02C09B
:101B7000759567950A94E2F7617077278C2D0E941E
:101B8000AA0F61E08D2D0E94AA0F60E08D2D0E94AA
:101B9000AA0F2197F0F6DF91CF911F910F91FF903F
:101BA000EF90DF90CF90BF9008958E3008F08E5068
:101BB00087702091440140E4249F90011124822BDE
:101BC00080937C0080917A00806480937A00809179
:101BD0007A0086FDFCCF2091780030917900932F18
:101BE00080E0AC01422B9A01C90108951F93CF9365
:101BF000DF93182FEB0161E00E94720F209711F420
:101C000060E004C0CF3FD10539F461E0812FDF915E
:101C1000CF911F910C94AA0FE12FF0E0E859FF4FEC
:101C2000E491E330B9F028F4E13051F0E230B1F55D
:101C30000CC0E63019F1E73049F1E43079F514C011
:101C400084B5806884BDC7BD2EC084B5806284BD64
:101C5000C8BD29C080918000806880938000D093A7
:101C60008900C09388001FC08091800080628093AB
:101C70008000D0938B00C0938A0015C08091B00083
:101C800080688093B000C093B3000DC08091B00015
:101C900080628093B000C093B40005C0C038D10505
:101CA0000CF0B3CFADCFDF91CF911F9108951F926C
:101CB0000F920FB60F9211242F933F938F939F9300
:101CC000AF93BF938091D5039091D603A091D70392
:101CD000B091D8033091DD03232F2D5F2D3720F4F1
:101CE0000196A11DB11D05C0232F2A570296A11DE3
:101CF000B11D2093DD038093D5039093D603A09369
:101D0000D703B093D8038091D9039091DA03A091BF
:101D1000DB03B091DC030196A11DB11D8093D903B3
:101D20009093DA03A093DB03B093DC03BF91AF91F0
:101D30009F918F913F912F910F900FBE0F901F9009
:101D400018950F931F938FB7F8940091D5031091B6
:101D5000D6032091D7033091D8038FBFB801C901B2
:101D60001F910F9108950F931F939FB7F8940091BF
:101D7000D9031091DA032091DB033091DC0386B59F
:101D8000A89B06C08F3F21F00F5F1F4F2F4F3F4F83
:101D90009FBF322F212F102F0027080F111D211D4B
:101DA000311D42E0000F111F221F331F4A95D1F74A
:101DB000B801C9011F910F910895CF92DF92EF9260
:101DC000FF92CF93DF936B017C010E94B30EEB0176
:101DD0000EC00E94B30E6C1B7D0B683E734038F042
:101DE00081E0C81AD108E108F108C851DC4FC114DC
:101DF000D104E104F10469F7DF91CF91FF90EF90F6
:101E0000DF90CF900895019739F0880F991F880FC0
:101E1000991F02970197F1F70895789484B582602D
:101E200084BD84B5816084BD85B5826085BD85B57E
:101E3000816085BDEEE6F0E0808181608083E1E82D
:101E4000F0E0108280818260808380818160808365
:101E5000E0E8F0E0808181608083E1EBF0E0808168
:101E600084608083E0EBF0E0808181608083EAE73A
:101E7000F0E08081846080838081826080838081C3
:101E8000816080838081806880831092C100089582
:101E9000833069F028F48130A1F0823011F514C04C
:101EA0008630B1F08730C1F08430D9F404C080911D
:101EB00080008F7703C0809180008F7D80938000A9
:101EC000089584B58F7702C084B58F7D84BD089551
:101ED0008091B0008F7703C08091B0008F7D809398
:101EE000B0000895CF93DF9390E0FC01E458FF4FDA
:101EF0004491FC01E057FF4F8491882341F190E029
:101F0000880F991FFC01E255FF4F25913491D901AB
:101F10008C559F4FFC0185919491C82FD92F9FB765
:101F2000F8948C91611106C0409584238C9388812C
:101F3000842308C0623041F4242F209582238C939F
:101F40008881842B888302C0842B8C939FBFDF9170
:101F5000CF9108950F931F93CF93DF931F92CDB727
:101F6000DEB7282F30E0F901E859FF4F8491F901DD
:101F7000E458FF4F1491F901E057FF4F04910023FB
:101F8000D1F0882321F069830E94480F6981E02FF6
:101F9000F0E0EE0FFF1FEC55FF4F85919491DC01AF
:101FA0009FB7F8948C91611103C01095812301C0F3
:101FB000812B8C939FBF0F90DF91CF911F910F9139
:101FC0000895CF92DF92EF92FF920F931F93CF93DA
:101FD000DF936C01EB017A01E60EF71E00E010E0E2
:101FE0000BC06991D601ED91FC910190F081E02D3B
:101FF000C6010995080F191FCE15DF0591F7C80115
:10200000DF91CF911F910F91FF90EF90DF90CF90D4
:102010000895DB010D900020E9F7AD014150510911
:10202000461B570BDC01ED91FC910280F381E02D02
:102030000994AF92BF92CF92DF92EF92FF920F93EB
:102040001F93CF93DF937C016B0100E010E0C0E0B1
:10205000D0E011C0D701ED91FC91A080B180B80112
:10206000C6010E94F817682FC701F5010995C80F2E
:10207000D91F0F5F1F4FD60114968D919C91159714
:102080000817190738F3CE01DF91CF911F910F91F7
:10209000FF90EF90DF90CF90BF90AF9008950C9499
:1020A0000910DC01ED91FC910190F081E02D099483
:1020B0000F931F93CF93DF93EC016DE00E945110BB
:1020C0008C016AE0CE010E9451109C01200F311F4B
:1020D000C901DF91CF911F910F9108950F931F9325
:1020E000CF93DF93EC010E9419108C01CE010E9466
:1020F00058109C01200F311FC901DF91CF911F9112
:102100000F9108950F931F93CF93DF93EC010E94DB
:1021100009108C01CE010E9458109801280F391F18
:10212000C901DF91CF911F910F9108954F925F9256
:102130006F927F929F92AF92BF92CF92DF92EF9277
:10214000FF920F931F93CF93DF93CDB7DEB7A19785
:102150000FB6F894DEBF0FBECDBF5C016A017B01F4
:10216000922E19A281E0821710F08AE0982E8E013B
:102170000F5D1F4F492C512C612C712CC701B601EA
:10218000A30192010E943F1A8C2D929E8019112466
:10219000015011098A3014F4805D01C0895CF80196
:1021A000808369017A01C114D104E104F10431F79B
:1021B000B801C5010E940910A1960FB6F894DEBFC0
:1021C0000FBECDBFDF91CF911F910F91FF90EF9088
:1021D000DF90CF90BF90AF909F907F906F905F9077
:1021E0004F9008952115310541F4DC01ED91FC91EA
:1021F0000190F081E02D642F09940C949610CF92F9
:10220000DF92EF92FF920F931F93CF93DF93EC0136
:102210006A017B012115310579F4E881F98101908A
:10222000F081E02D642FDF91CF911F910F91FF90EE
:10223000EF90DF90CF9009942A30310519F477FDA3
:102240000EC02AE0B701A601CE01DF91CF911F9108
:102250000F91FF90EF90DF90CF900C9496106DE26D
:102260000E9451108C0144275527BA014C195D0971
:102270006E097F092AE0CE010E949610080F191FEF
:10228000C801DF91CF911F910F91FF90EF90DF90E8
:10229000CF9008959A01AB01662757FD6095762F80
:1022A0000C94FF107F928F929F92AF92BF92CF9229
:1022B000DF92EF92FF920F931F93CF93DF938C01E6
:1022C0004A015B01F22E20E030E0A901C501B40112
:1022D0000E946E1887FF0AC06DE2C8010E9451106B
:1022E000EC01B7FAB094B7F8B09402C0C0E0D0E007
:1022F000E12C60E070E080E09FE307C020E030E088
:1023000040E251E40E947218E394EF10F7CF262FB9
:10231000372F482F592FC501B4010E940A18762E75
:10232000872E982EA92E0E94DF18B62EC72ED82EE3
:10233000E92E0E940B199B01AC01672D782D892D88
:102340009A2D0E940918A62E972E882E792E2AE003
:102350004B2D5C2D6D2D7E2DC8010E949610C80F4F
:10236000D91FFF20B9F168EA72E0C8010E94091084
:10237000C80FD91F2FC020E030E040E251E46A2DA1
:10238000792D882D972D0E94C119762EC72ED82E13
:10239000E92E0E94DA184B01AA2497FCA094BA2CCB
:1023A0002AE030E0B501A401C8010E94FF10C80F67
:1023B000D91FC501B4010E940D199B01AC01672D05
:1023C0007C2D8D2D9E2D0E940918A62E972E882ECD
:1023D000792EFA94F110CFCFCE01DF91CF911F91DA
:1023E0000F91FF90EF90DF90CF90BF90AF909F90B4
:1023F0008F907F9008950C945211FC0184859585EF
:10240000FC01E05CFF4F20813181FC01EE5BFF4F5E
:1024100080819181281B390B2F733327C9010895BF
:10242000FC0184859585FC01E05CFF4F4081518172
:10243000FC01EE5BFF4F208131814217530741F0D1
:102440000190F081E02DE80FF91F208130E002C0FB
:102450002FEF3FEFC9010895FC0184859585FC01AC
:10246000E05CFF4F40815181FC01EE5BFF4F20811A
:1024700031814217530781F0A081B181A80FB91FA4
:102480008C91208131812F5F3F4F2F733327318310
:102490002083282F30E002C02FEF3FEFC9010895BD
:1024A000FC0186859785FC01E05CFF4FDC01AE5B9B
:1024B000BF4F408151812D913C9111974217530795
:1024C000C1F70895CF93DF93FC0186859785DC01E2
:1024D000A05CBF4F2D913C9111972F5F3F4F2F7301
:1024E0003327EC01CE5BDF4F488159812417350734
:1024F000D9F30D90BC91A02DA80FB91F6C93A685A0
:10250000B785A05CBF4F11963C932E93A689B789DF
:102510002C9181E090E0058C02C0880F991F0A94ED
:10252000E2F7282B2C9381E090E0DF91CF91089582
:1025300008951F920F920FB60F9211242F933F937D
:102540004F938F939F93EF93FF934091C600809199
:1025500081049091820401968F73992720918304BE
:10256000309184048217930759F0E0918104F0912F
:102570008204EF5BFB4F408390938204809381043D
:10258000FF91EF919F918F914F913F912F910F90DC
:102590000FBE0F901F9018958EED93E00E94FD11D5
:1025A000892B11F00C94981208951F920F920FB678
:1025B0000F9211242F933F938F939F93EF93FF9349
:1025C00020913D0430913E0480913F04909140045D
:1025D0002817390731F48091C1008F7D8093C100A5
:1025E00014C0E0913F04F0914004E350FC4F20817F
:1025F00080913F049091400401968F7399279093A6
:10260000400480933F042093C600FF91EF919F9177
:102610008F913F912F910F900FBE0F901F901895A3
:10262000CF92DF92EF92FF92CF93DF93EC016A019A
:102630007B01411581EE580761057105F9F0EC89C0
:10264000FD8981E090E00E8C02C0880F991F0A94EA
:10265000E2F7808360E079E08DE390E0A7019601E6
:102660000E943F1A21503109410951095695479559
:1026700037952795211580E1380798F0EC89FD8979
:10268000108260E874E88EE190E0A70196010E9454
:102690003F1A2150310941095109569547953795FF
:1026A0002795E889F9893083EA89FB892083EE89B7
:1026B000FF89408181E090E09C010A8C02C0220FDA
:1026C000331F0A94E2F7422B4083EE89FF89408151
:1026D0009C010B8C02C0220F331F0A94E2F7422B9D
:1026E0004083EE89FF8940819C010C8C02C0220F3F
:1026F000331F0A94E2F7422B4083EE89FF89208141
:102700000D8C02C0880F991F0A94E2F780958223EE
:102710008083DF91CF91FF90EF90DF90CF9008956D
:102720001092E1031092E00388EE93E0A0E0B0E0A5
:102730008093E2039093E303A093E403B093E50353
:102740008EEA92E09093DF038093DE0381E494E0CD
:102750009093EB038093EA038DEF93E09093ED0366
:102760008093EC0385EC90E09093EF038093EE036D
:1027700084EC90E09093F1038093F00380EC90E080
:102780009093F3038093F20381EC90E09093F50330
:102790008093F40386EC90E09093F7038093F60324
:1027A00084E08093F80383E08093F90387E08093CB
:1027B000FA0385E08093FB0381E08093FC03089596
:1027C0004F925F926F927F92AF92BF92CF92DF92C1
:1027D000EF92FF920F931F93CF93DF93CDB7DEB7A6
:1027E00029013A01621B730B840B950B29893A89E5
:1027F0004B895C892A193B094C095D09298B3A8B65
:102800004B8B5C8B9B01AC0169897A898B899C8994
:102810000E942F1AE418F50806091709A801970164
:102820000E94611A2A0D3B1D4C1D5D1DB901CA0194
:10283000DF91CF911F910F91FF90EF90DF90CF909C
:10284000BF90AF907F906F905F904F9008950E94DF
:102850000D0F0E94A000CCECD2E10E94FE07209751
:10286000E1F30E94CC12F9CF3F924F925F926F92A8
:102870007F928F929F92AF92BF92CF92DF92EF9210
:10288000FF920F931F93CF93DF9300D000D0CDB76B
:10289000DEB78B0129013A0190914501981721F08B
:1028A0009F3F09F0CAC104C0E8EBF0E034907EC05D
:1028B00080934501E8EBF0E034909FEF391609F47E
:1028C000BCC1E1E03E1631F1F2E03F1609F448C028
:1028D00031106CC014BC15BC94B5926094BD95B514
:1028E000916095BD282F30E0F901E057FF4FE4914A
:1028F000F0E0EE0FFF1FEC55FF4F459154914093D0
:10290000940450939504F901E458FF4F24912093C7
:1029100093044EC01092800010928100909181002B
:1029200098609093810090918100916090938100D4
:10293000282F30E0F901E057FF4FE491F0E0EE0F6F
:10294000FF1FEC55FF4F4591549140938D045093D8
:102950008E04F901E458FF4F249120938C0428C081
:102960001092B0001092B1009091B00092609093DC
:10297000B0009091B10091609093B100282F30E0A9
:10298000F901E057FF4FE491F0E0EE0FFF1FEC5527
:10299000FF4F459154914093860450938704F90169
:1029A000E458FF4F24912093850402C037FC45C1B1
:1029B00061E00E94720F4801A12CB12C60E072E12D
:1029C0008AE790E0A50194010E94611A332019F072
:1029D00082E03812B7C029833A834B835C83690154
:1029E0007A0191E0C91AD108E108F108EFEFCE169B
:1029F000D104E104F10409F008F49AC060E472E43F
:102A00008FE090E0A50194010E94611A69017A01AA
:102A1000F1E0CF1AD108E108F10882E0381219C0BC
:102A20009FEFC916D104E104F10409F008F401C1D3
:102A300060E970ED83E090E0A50194010E94611AC5
:102A400069017A01E1E0CE1AD108E108F10883E0DA
:102A500001C082E0FFEFCF16D104E104F10409F0D8
:102A600008F467C068E478EE81E090E0A501940185
:102A70000E94611A69017A0181E0C81AD108E1084F
:102A8000F1083320E1F092E039121BC0EFEFCE16CF
:102A9000D104E104F10409F008F4CDC064E274EF5C
:102AA00080E090E0A50194010E94611A69017A0119
:102AB000F1E0CF1AD108E108F10885E003C083E016
:102AC00001C084E09FEFC916D104E104F10489F14B
:102AD00080F162E17AE780E090E0A50194010E9434
:102AE000611A69017A01E1E0CE1AD108E108F10822
:102AF000311002C084E001C086E0FFEFCF16D104A0
:102B0000E104F104B1F0A8F0C980DA80EB80FC8028
:102B10009AE0F594E794D794C7949A95D1F781E019
:102B2000C81AD108E108F108332031F087E007C066
:102B300081E0332011F003C085E085BD2BC0809378
:102B4000B10028C069017A0191E0C91AD108E108F1
:102B5000F108C114D104E1E0EE06F10488F068E464
:102B600078EE81E090E0A50194010E94611A69016C
:102B70007A01F1E0CF1AD108E108F10893E001C031
:102B800091E081E0381206C080918100887F892B16
:102B900080938100411451046104710471F0D801E3
:102BA000AA0FBB1FA30192010E94241A28EE33E052
:102BB00040E050E00E943F1A03C02FEF3FEFA90111
:102BC00091E03916A1F0E2E03E1619F1311035C05E
:102BD000C7BC209396043093970440939804509375
:102BE000990480916E00826080936E0026C0D0921E
:102BF0008900C092880020938F0430939004409302
:102C000091045093920480916F00826080936F00D2
:102C100014C0C092B3002093880430938904409379
:102C20008A0450938B0480917000826080937000BE
:102C300004C082E084CF84E082CF0F900F900F9089
:102C40000F90DF91CF911F910F91FF90EF90DF9048
:102C5000CF90BF90AF909F908F907F906F905F903C
:102C60004F903F900895813039F018F08230D1F4C0
:102C700009C010926E00089580916F008D7F80933F
:102C80006F000895809170008D7F8093700081E0C7
:102C90008093B0008091B100887F84608093B10000
:102CA0001092B3000895CF93C82F809145018C13E3
:102CB00007C0E8EBF0E084919FEF9093450101C0DD
:102CC0008FEF0E94331660E08C2FCF910C94AA0FE7
:102CD0001F920F920FB60F9211242F933F934F9391
:102CE0005F936F937F938F939F93AF93BF93EF9374
:102CF000FF938091880490918904A0918A04B091F7
:102D00008B04892B8A2B8B2B51F190918504E091B8
:102D10008604F091870480818927808380918804CC
:102D200090918904A0918A04B0918B041816190619
:102D30001A061B06C4F48091880490918904A0911E
:102D40008A04B0918B040197A109B109809388048A
:102D500090938904A0938A04B0938B0404C080915B
:102D600045010E945316FF91EF91BF91AF919F9142
:102D70008F917F916F915F914F913F912F910F9024
:102D80000FBE0F901F901895FC01808191810C94CB
:102D90002A1BCF93DF93EC0188819981009711F072
:102DA0000E942A1B198218821D821C821B821A8291
:102DB000DF91CF9108950F931F93CF93DF93EC0191
:102DC0008B016F5F7F4F888199810E94C61B00979E
:102DD00031F0998388831B830A8381E001C080E0FE
:102DE000DF91CF911F910F910895CF93DF93EC0165
:102DF00088819981892B31F08A819B818617970779
:102E000008F00CC0CE010E94DB16882349F08C81AB
:102E10009D81892B19F4E881F981108281E001C03C
:102E200080E0DF91CF910895EF92FF920F931F936F
:102E3000CF93DF93EC017B018A01BA010E94F51662
:102E4000811104C0CE010E94C91607C01D830C83E6
:102E5000B701888199810E94971CCE01DF91CF91A3
:102E60001F910F91FF90EF900895DC0111961C9235
:102E70001E9213961C921E92129715961C921E92E9
:102E8000149716961C926115710559F0DB010D908F
:102E90000020E9F7AD0141505109461B570B0C9436
:102EA00014170895CF93DF93EC01FB018617970762
:102EB00061F0608171816115710529F0448155814E
:102EC0000E94141702C00E94C916CE01DF91CF9153
:102ED0000895FC01118210821382128215821482DD
:102EE00016820C945217EF92FF920F931F93CF9379
:102EF000DF93EC017B010C811D816115710511F4DB
:102F000080E016C04115510591F0040F151FB8015E
:102F10000E94F5168823A1F3288139818C819D8137
:102F2000B701820F931F0E94971C1D830C8381E0C1
:102F3000DF91CF911F910F91FF90EF900895EF9245
:102F4000FF920F931F93CF93DF93CDB7DEB72797F1
:102F50000FB6F894DEBF0FBECDBF7C01CB014AE0B7
:102F600050E08E010F5F1F4FB8010E949E1CF801B8
:102F700001900020E9F7AF0141505109401B510B6E
:102F8000B801C7010E94731727960FB6F894DEBFE9
:102F90000FBECDBFDF91CF911F910F91FF90EF90AA
:102FA0000895CF93DF93D82FC92FFB01448155811A
:102FB000608171810E947317811104C08D2F9C2F35
:102FC0000E94C9168D2F9C2FDF91CF910895CF932A
:102FD000DF93D82FC92F0E949F17811104C08D2F16
:102FE0009C2F0E94C9168D2F9C2FDF91CF910895A1
:102FF000FC01248135816217730748F48081918137
:10300000009729F0FC01E60FF71F8081089580E00A
:1030100008955058BB27AA270ED075C166D130F04D
:103020006BD120F031F49F3F11F41EF45BC10EF41C
:10303000E095E7FB51C1E92F77D180F3BA1762071A
:1030400073078407950718F071F49EF58FC10EF48D
:10305000E0950B2EBA2FA02D0B01B90190010C01A8
:10306000CA01A0011124FF27591B99F0593F50F4C0
:10307000503E68F11A16F040A22F232F342F442718
:10308000585FF3CF469537952795A795F040539510
:10309000C9F77EF41F16BA0B620B730B840BBAF0E0
:1030A0009150A1F0FF0FBB1F661F771F881FC2F74B
:1030B0000EC0BA0F621F731F841F48F4879577955F
:1030C0006795B795F7959E3F08F0B3CF9395880F16
:1030D00008F09927EE0F979587950895D9D008F4B1
:1030E00081E008950CD00FC107D140F0FED030F040
:1030F00021F45F3F19F0F0C0511139C1F3C014D170
:1031000098F39923C9F35523B1F3951B550BBB27AE
:10311000AA2762177307840738F09F5F5F4F220F5B
:10312000331F441FAA1FA9F333D00E2E3AF0E0E854
:1031300030D091505040E695001CCAF729D0FE2FA0
:1031400027D0660F771F881FBB1F26173707480732
:10315000AB07B0E809F0BB0B802DBF01FF279358E8
:103160005F4F2AF09E3F510568F0B6C000C15F3F37
:10317000ECF3983EDCF3869577956795B795F795D0
:103180009F5FC9F7880F911D9695879597F90895C8
:10319000E1E0660F771F881FBB1F62177307840764
:1031A000BA0720F0621B730B840BBA0BEE1F88F773
:1031B000E095089504D06894B111D9C00895BCD0A9
:1031C00088F09F5790F0B92F9927B751A0F0D1F010
:1031D000660F771F881F991F1AF0BA95C9F712C09A
:1031E000B13081F0C3D0B1E00895C0C0672F782F0F
:1031F0008827B85F39F0B93FCCF386957795679506
:10320000B395D9F73EF490958095709561957F4F71
:103210008F4F9F4F0895E89409C097FB3EF4909517
:103220008095709561957F4F8F4F9F4F9923A9F09F
:10323000F92F96E9BB279395F6958795779567952E
:10324000B795F111F8CFFAF4BB0F11F460FF1BC072
:103250006F5F7F4F8F4F9F4F16C0882311F096E905
:1032600011C0772321F09EE8872F762F05C06623B3
:1032700071F096E8862F70E060E02AF09A95660F6C
:10328000771F881FDAF7880F9695879597F9089525
:10329000990F0008550FAA0BE0E8FEEF1616170667
:1032A000E807F907C0F012161306E407F50798F0CF
:1032B000621B730B840B950B39F40A2661F0232BE8
:1032C000242B252B21F408950A2609F4A140A69564
:1032D0008FEF811D811D089597F99F6780E870E049
:1032E00060E008959FEF80EC089500240A9416167C
:1032F000170618060906089500240A9412161306E4
:10330000140605060895092E0394000C11F4882371
:1033100052F0BB0F40F4BF2B11F460FF04C06F5F8D
:103320007F4F8F4F9F4F089557FD9058440F551F63
:1033300059F05F3F71F04795880F97FB991F61F037
:103340009F3F79F087950895121613061406551FAE
:10335000F2CF4695F1DF08C0161617061806991F1A
:10336000F1CF86957105610508940895E894BB270F
:1033700066277727CB0197F908958ADF08F48FEF46
:1033800008950BD0C0CFB1DF28F0B6DF18F0952339
:1033900009F0A2CFA7CF1124EACFC6DFA0F3959FF3
:1033A000D1F3950F50E0551F629FF001729FBB272C
:1033B000F00DB11D639FAA27F00DB11DAA1F649FD8
:1033C0006627B00DA11D661F829F2227B00DA11D8B
:1033D000621F739FB00DA11D621F839FA00D611D11
:1033E000221F749F3327A00D611D231F849F600D32
:1033F000211D822F762F6A2F11249F5750408AF06B
:10340000E1F088234AF0EE0FFF1FBB1F661F771FF6
:10341000881F91505040A9F79E3F510570F05CCF36
:10342000A6CF5F3FECF3983EDCF3869577956795E2
:10343000B795F795E7959F5FC1F7FE2B880F911D14
:103440009695879597F908950E947D1AA59F900DEE
:10345000B49F900DA49F800D911D11240895DB0150
:103460008F939F930E94241ABF91AF91A29F800DCA
:10347000911DA39F900DB29F900D11240895A1E27C
:103480001A2EAA1BBB1BFD010DC0AA1FBB1FEE1FDE
:10349000FF1FA217B307E407F50720F0A21BB30B29
:1034A000E40BF50B661F771F881F991F1A9469F7A5
:1034B00060957095809590959B01AC01BD01CF0101
:1034C0000895052E97FB16F4009407D057FD0DD0F4
:1034D0000E943F1A07FC09D07EF490958095709564
:1034E00061957F4F8F4F9F4F089550954095309530
:1034F00021953F4F4F4F5F4F0895A29FB001B39F5B
:10350000C001A39F01D0B29F700D811D1124911D98
:103510000895EE0FFF1F0590F491E02D09940F938D
:103520001F93CF93DF938230910510F482E090E0F7
:10353000E0919C04F0919D0420E030E0C0E0D0E0F8
:1035400023C04081518148175907A8F048175907EF
:1035500061F482819381209719F09B838A832EC026
:1035600090939D0480939C0429C02115310529F076
:103570004217530710F0A90102C0BE01DF0102810A
:103580001381EF019A01F8013097D9F62115310521
:1035900009F1281B390B2430310590F412968D91D6
:1035A0009C9113976115710521F0FB019383828330
:1035B00004C090939D0480939C04FD01329644C006
:1035C000FD01E20FF31F81939193225031092D9356
:1035D0003C933AC020919A0430919B04232B41F4F0
:1035E000209102013091030130939B0420939A04AF
:1035F00020910001309101012115310541F42DB7D1
:103600003EB74091040150910501241B350BE09118
:103610009A04F0919B04E217F307A0F42E1B3F0BD2
:103620002817390778F0AC014E5F5F4F2417350734
:1036300048F04E0F5F1F50939B0440939A04819370
:10364000919302C0E0E0F0E0CF01DF91CF911F91B4
:103650000F910895EF92FF920F931F93CF93DF93F3
:10366000009709F48EC0DC01129713961C921E92EB
:103670001297E0909C04F0909D04E114F10489F409
:103680002D913C911197280F391F80919A049091A8
:103690009B048217930789F5B0939B04A0939A0427
:1036A00070C0E70120E030E001C0EA01CA17DB0783
:1036B00038F44A815B819E0141155105B1F722C062
:1036C000AC0142505109FA01D383C28300811181B8
:1036D000BC01600F711F6C177D0761F468817981EF
:1036E000600F711F6E5F7F4F718360836A817B8182
:1036F000738362832115310529F4B0939D04A0934F
:103700009C043FC0F901B383A283E9014991599117
:10371000C40FD51FAC17BD0771F4DC019E918E91CB
:10372000840F951F02969183808312968D919C91B0
:10373000139793838283A0E0B0E002C0D7017C019D
:10374000F701828193810097C9F7C7010296208112
:103750003181820F931F20919A0430919B04281786
:10376000390779F4109729F410929D0410929C0463
:1037700004C013961C921E921297F0929B04E09242
:103780009A04CDB7DEB7E6E00C940B1DA0E0B0E0E4
:10379000ECECFBE10C94E91CEC01009729F4CB0163
:1037A0000E948F1AEC01B4C0DC01A60FB71FFC0108
:1037B0003297AE17BF0718F4C0E0D0E0A9C000816F
:1037C000118106171707B0F00530110508F4A0C0E5
:1037D000C80104978617970708F49AC00250110988
:1037E000061B170B0D931D9371836083CD010E94FF
:1037F0002A1B8EC06B01C01AD10A7C01E00EF11E9B
:10380000E0919C04F0919D0420E030E080E090E0A5
:1038100048C0EE15FF05D1F580809180540142E04B
:10382000A40EB11CAC14BD0488F17401EC18FD08A1
:10383000670122E0C20ED11C9E012250310945E0F1
:10384000C416D10478F04281538113965C934E9351
:1038500012971196FC92EE92F901718360833A2FD0
:103860002B2F09C00E5F1F4F080D191DD9010D9395
:103870001C9332812381009721F0FC013283238342
:1038800047C030939C0420939D0442C08081918165
:103890002817390708F49C0152814381CF01E52F95
:1038A000F42F309709F0B5CF80919A0490919B0442
:1038B0008E159F05F1F426173707D8F48091000183
:1038C00090910101009741F48DB79EB720910401BA
:1038D00030910501821B930BA817B90708F06CCF34
:1038E000B0939B04A0939A04FE0132977183608386
:1038F0000FC0CB010E948F1A7C01009709F45CCFA6
:10390000A801BE010E948E1CCE010E942A1BE70165
:10391000CE01CDB7DEB7ECE00C94051DFB01DC0158
:1039200002C001900D9241505040D8F70895FB011C
:10393000DC0101900D920020E1F70895FB019F0149
:10394000E8944230C4F04532B4F44A3029F497FB8D
:103950001EF4909581959F4F642F77270E94CF1C6E
:10396000805D8A330CF0895D8193CB010097A1F7CC
:1039700016F45DE251931082C9010C94BF1CDC0166
:10398000FC01672F71917723E1F7329704C07C9196
:103990006D9370836291AE17BF07C8F30895AA1B99
:1039A000BB1B51E107C0AA1FBB1FA617B70710F02A
:1039B000A61BB70B881F991F5A95A9F7809590955C
:1039C000BC01CD0108952F923F924F925F926F926A
:1039D0007F928F929F92AF92BF92CF92DF92EF929F
:1039E000FF920F931F93CF93DF93CDB7DEB7CA1B20
:1039F000DB0B0FB6F894DEBF0FBECDBF09942A884B
:103A0000398848885F846E847D848C849B84AA84F2
:103A1000B984C884DF80EE80FD800C811B81AA817F
:103A2000B981CE0FD11D0FB6F894DEBF0FBECDBF4A
:083A3000ED010895F894FFCFA9
:103A380000009E04200050008403F40101000100EE
:103A4800010001000600080007000B00100011002B
:103A5800020003000500060009000A000C000D0022
:103A680012026B039600520300007A4510270000EB
:103A7800FF00320001FF00004000140054007820CD
:103A88003D20002066616E54696D657252756E6ED8
:103A9800696E673D200046616E204F6E0056616C6E
:103AA8007665204F70656E0061203D2000206675A8
:103AB800656C54696D657252756E6E696E673D20EE
:103AC800004C65667400526967687400446F776ECD
:103AD80000557000426F756E636520666F7263658E
:103AE800206C656674203D2000426F756E6365200A
:103AF800666F726365207269676874203D200048AC
:103B08006F72697A6F6E74616C204D6F74696F6E35
:103B1800203D200020566572746963616C204D6FEA
:103B280074696F6E203D2000413D4675656C2058D4
:103B38003D46616E00593D4E65787420423D4368AC
:103B4800616E6765004675656C2054696D65720025
:103B5800207365636F6E6473006F666600496E70EC
:103B680075742058203D2000496E707574205920C6
:103B78003D200041203D20002042203D2000506192
:103B88006E203D200054696C74203D2000557074EF
:103B9800696D6500486F72697A2E20537472656E7C
:103BA8006774680049324320436F6E6E65637469B9
:103BB8006F6E004E6F7420446574656374656400AD
:103BC800000000004A0AE10F00000000A40B760B79
:103BD800190B220B360B460B2E0000000000621258
:0A3BE800E10FFD112C121012501213
:00000001FF
